:020000040800F2
:100000000050002069050008850400088D040008E0
:10001000950400089D040008A504000800000000E5
:10002000000000000000000000000000AD04000817
:10003000B904000800000000C5040008D10400084D
:10004000B1050008B1050008B1050008B1050008B8
:10005000B1050008B1050008B1050008B1050008A8
:10006000B1050008B1050008B1050008B105000898
:10007000B1050008B1050008B1050008B105000888
:10008000B1050008B1050008B1050008B105000878
:10009000DD040008B1050008B1050008B10500083D
:1000A000B1050008B1050008B1050008B105000858
:1000B000B1050008B1050008B1050008B105000848
:1000C000B1050008B1050008B1050008B105000838
:1000D000B1050008B1050008B1050008B105000828
:1000E000B1050008B1050008B105000800000000D6
:1000F0000000000000000000000000000000000000
:0C01000000000000000000005FF808F1A3
:10010C0010B5054C237833B9044B13B10448AFF345
:10011C0000800123237010BDCC01002000000000E2
:10012C00508C000808B5034B1BB103490348AFF3CF
:10013C00008008BD00000000D0010020508C000899
:10014C0080B582B000AF00F02FFA00F039F800F063
:10015C00D3F800F093F807F015FC144800F0DEFE1D
:10016C00124800F05BFB4FF0FF31104800F030FC00
:10017C000E4800F033FD03460D4AA2FB03235B0936
:10018C009AB20C4B1A80094800F0F6FB094B1B88FD
:10019C00094A4021094808F091F878607B689BB2C5
:1001AC001946064807F0ACFC00BFD9E7E80100206F
:1001BC001F85EB5118020020688C00081C020020DF
:1001CC0080B594B000AF07F128032822002118460F
:1001DC0008F0A8F807F1140300221A605A609A601C
:1001EC00DA601A613B1D00221A605A609A60DA606C
:1001FC000123BB624FF48033FB6200233B6301237A
:10020C00BB6302237B644FF48033BB644FF4E01375
:10021C00FB6407F12803184602F046FF0346002B47
:10022C0001D000F0B5F80F237B610223BB610023E2
:10023C00FB614FF480633B6200237B6207F1140384
:10024C000221184603F0B2F90346002B01D000F04E
:10025C009FF812237B604FF40043FB6000233B614B
:10026C003B1D184603F01CFB0346002B01D000F08D
:10027C008FF800BF5037BD4680BD000080B584B0FC
:10028C0000AF3B1D00221A605A609A60184B194A45
:10029C001A60174B00229A60154B00221A73144BEC
:1002AC0000221A75124B4FF46022DA61104B0022B7
:1002BC005A600F4B01221A610D4800F0D7F9034622
:1002CC00002B01D000F064F800237B600123BB609D
:1002DC000023FB603B1D1946054800F08BFC0346D0
:1002EC00002B01D000F054F800BF1037BD4680BD84
:1002FC00E80100200024014080B588B000AF07F170
:10030C00100300221A605A609A60DA601E4B9B69D7
:10031C001D4A43F0100393611B4B9B6903F01003C0
:10032C00FB60FB68184B9B69174A43F020039361F1
:10033C00154B9B6903F02003BB60BB68124B9B6998
:10034C00114A43F0040393610F4B9B6903F00403C0
:10035C007B607B6800224FF400510C4801F01EF9C1
:10036C004FF400533B6101237B610023BB610223EB
:10037C00FB6107F110031946044800F08BFF00BF26
:10038C002037BD4680BD00BF001002400010014068
:10039C0080B400AF72B600BF00BFFDE780B485B07B
:1003AC0000AF154B9B69144A43F001039361124B48
:1003BC009B6903F00103BB60BB680F4BDB690E4A02
:1003CC0043F08053D3610C4BDB6903F080537B60AB
:1003DC007B680A4B5B68FB60FB6823F0E063FB60A7
:1003EC00FB6843F08063FB60044AFB68536000BF0A
:1003FC001437BD4680BC704700100240000001401D
:10040C0080B588B000AF786007F1100300221A6045
:10041C005A609A60DA607B681B68144A934221D157
:10042C00134B9B69124A43F400739361104B9B6905
:10043C0003F40073FB60FB680D4B9B690C4A43F0A3
:10044C00040393610A4B9B6903F00403BB60BB6814
:10045C0001233B6103237B6107F110031946054817
:10046C0000F018FF00BF2037BD4680BD00240140BE
:10047C00001002400008014080B400AF00BFFDE74F
:10048C0080B400AF00BFFDE780B400AF00BFFDE754
:10049C0080B400AF00BFFDE780B400AF00BFFDE744
:1004AC0080B400AF00BFBD4680BC704780B400AFC5
:1004BC0000BFBD4680BC704780B400AF00BFBD46D6
:1004CC0080BC704780B500AF00F0B4F800BF80BDB1
:1004DC0080B500AF024801F09EF900BF80BD00BF9F
:1004EC002C0F002080B586B000AF7860144A154BF5
:1004FC00D31A7B617B693B61134B1B68002B02D1C8
:10050C00114B124A1A60104B1A687B6813443A69F3
:10051C009A4207D207F00EFF03460C221A604FF0E6
:10052C00FF3309E0084B1B68FB60074B1A687B68BC
:10053C001344054A1360FB6818461837BD4680BD46
:10054C0000500020000400005C02002088150020F0
:10055C0080B400AF00BFBD4680BC7047FFF7F8FF0A
:10056C000B480C490C4A002302E0D458C450043305
:10057C00C4188C42F9D3094A094C002301E01360DA
:10058C000432A242FBD307F0DBFEFFF7D9FD704724
:10059C0000000020CC010020348D0008CC0100208C
:1005AC0084150020FEE7000080B500AF084B1B68E7
:1005BC00074A43F010031360032000F029FE0F20BC
:1005CC0000F008F8FFF7EAFE0023184680BD00BFD4
:1005DC000020024080B582B000AF7860124B1A68E0
:1005EC00124B1B7819464FF47A73B3FBF1F3B2FB41
:1005FC00F3F3184600F041FE0346002B01D0012313
:10060C000EE07B680F2B0AD8002279684FF0FF3080
:10061C0000F009FE064A7B681360002300E001230A
:10062C0018460837BD4680BD000000200800002099
:10063C000400002080B400AF054B1B781A46054B14
:10064C001B681344034A136000BFBD4680BC70474F
:10065C00080000206002002080B400AF024B1B6831
:10066C001846BD4680BC70476002002080B586B03D
:10067C0000AF78600023FB7500233B610023BB6057
:10068C000023FB607B68002B01D10123BEE07B685B
:10069C009B68002B7B689B6A002B09D17B6800222E
:1006AC00DA627B68002283F824207868FFF7A8FEC2
:1006BC00786800F0F1FB0346FB757B689B6A03F0DE
:1006CC001003002B40F09980FB7D002B40F09580AF
:1006DC007B689B6A23F4885323F0020343F00202E5
:1006EC007B689A627B685A687B68DB691A437B6813
:1006FC001B7B5B001343BA681343BB607B689B682E
:10070C00B3F5807F03D07B689B68012B02D14FF43B
:10071C00807300E000233A6913433B617B681B7DC7
:10072C00012B19D17B681B7B002B09D17B689B6942
:10073C00013B5A033B69134343F400633B610BE0F9
:10074C007B689B6A43F020027B689A627B68DB6A59
:10075C0043F001027B68DA627B681B685B6823F4F8
:10076C0069417B681B683A690A435A607B681B685D
:10077C009A68284B13407A681268B9680B439360E7
:10078C007B689B68B3F5807F03D07B689B68012BEB
:10079C0004D17B681B69013B1B05FB607B681B68F4
:1007AC00DB6A23F470017B681B68FA680A43DA621F
:1007BC007B681B689A68184B1340BA689A420BD135
:1007CC007B680022DA627B689B6A23F0030343F0A8
:1007DC0001027B689A6218E07B689B6A23F0120323
:1007EC0043F010027B689A627B68DB6A43F001027B
:1007FC007B68DA620123FB7507E07B689B6A43F038
:10080C0010027B689A620123FB75FB7D1846183732
:10081C00BD4680BDFDF7E1FFFE0E1FFF80B584B025
:10082C0000AF78600023FB737B6893F82430012BB6
:10083C0001D1022398E07B68012283F82420786898
:10084C0000F0D0FA0346FB73FB7B002B40F0878053
:10085C007B689B6A23F4407323F0010343F480729A
:10086C007B689A627B681B68414A934205D1414B75
:10087C005B6803F47023002B15D17B689B6A23F40F
:10088C0080127B689A627B681B685B6803F48063E8
:10089C00002B26D07B689B6A23F4405343F4805290
:1008AC007B689A621DE07B689B6A43F480127B68CC
:1008BC009A627B681B682F4A934204D07B681B6842
:1008CC002B4A93420DD12B4B5B6803F48063002BB6
:1008DC0007D07B689B6A23F4405343F480527B68B7
:1008EC009A627B689B6A03F48053002B06D07B686A
:1008FC00DB6A23F006027B68DA6202E07B68002286
:10090C00DA627B68002283F824207B681B686FF016
:10091C0002021A607B681B689B6803F46023B3F5C2
:10092C00602F13D17B681B68114A934205D1114B80
:10093C005B6803F47023002B08D17B681B689A68F2
:10094C007B681B6842F4A0029A600CE07B681B6811
:10095C009A687B681B6842F480129A6003E07B689B
:10096C00002283F82420FB7B18461037BD4680BD3F
:10097C00002801400024014080B584B000AF7860AD
:10098C000023FB737B6893F82430012B01D10223E5
:10099C001AE07B68012283F82420786800F07CFA46
:1009AC000346FB73FB7B002B09D17B689B6A23F40A
:1009BC00885323F0010343F001027B689A627B6841
:1009CC00002283F82420FB7B18461037BD4680BDDF
:1009DC0090B587B000AF7860396000237B6100234D
:1009EC00FB6000233B61FFF737FE78617B681B6877
:1009FC009B6803F48073002B0BD07B689B6A43F0DD
:100A0C0020027B689A627B68002283F824200123F1
:100A1C00D3E07B681B685B6803F48073002B31D1D7
:100A2C007B681B68DB6A03F47003002B2AD121E07E
:100A3C003B68B3F1FF3F1DD03B68002B07D0FFF79D
:100A4C000BFE02467B69D31A3A689A4212D27B6833
:100A5C001B681B6803F00203002B0BD17B689B6A9D
:100A6C0043F004027B689A627B68002283F824209E
:100A7C000323A2E07B681B681B6803F00203002BB6
:100A8C00D6D070E04F4B1C68022002F0BFFF03462B
:100A9C00B4FBF3F27B681B6819694B4B0B40002BC2
:100AAC0018D17B681B68D968484B0B40002B11D1BF
:100ABC007B681B681969464B0B40002B08D17B687F
:100ACC001B68D968434B0B40002B01D1142320E049
:100ADC0029231EE07B681B6819693D4B0B40002BDA
:100AEC0006D17B681B68D9683A4B0B40002B0DD0A4
:100AFC007B681B681969384B0B40002B08D17B684D
:100B0C001B68D968344B0B40002B01D1542300E0F7
:100B1C00FC2302FB03F33B6121E03B68B3F1FF3F95
:100B2C001AD03B68002B07D0FFF796FD02467B6975
:100B3C00D31A3A689A420FD2FB683A699A420BD997
:100B4C007B689B6A43F004027B689A627B68002294
:100B5C0083F82420032330E0FB680133FB60FB683F
:100B6C003A699A42D9D87B681B686FF012021A60F6
:100B7C007B689B6A43F400727B689A627B681B6893
:100B8C009B6803F46023B3F5602F15D17B681B7B46
:100B9C00002B11D17B689B6A23F480727B689A626C
:100BAC007B689B6A03F48053002B05D17B689B6A9E
:100BBC0043F001027B689A62002318461C37BD463D
:100BCC0090BD00BF000000202449922424499200CB
:100BDC0092244912922449004992240080B483B093
:100BEC0000AF78607B681B68DB6C18460C37BD4621
:100BFC0080BC704780B485B000AF7860396000234A
:100C0C00FB730023BB607B6893F82430012B01D16C
:100C1C000223DCE07B68012283F824203B685B68BC
:100C2C00062B1CD87B681B68596B3B685A681346AB
:100C3C009B001344053B1F2202FA03F3DB431940CC
:100C4C003B6818683B685A6813469B001344053B85
:100C5C0000FA03F27B681B680A435A633CE03B686A
:100C6C005B680C2B1CD87B681B68196B3B685A683B
:100C7C0013469B001344233B1F2202FA03F3DB436E
:100C8C0019403B6818683B685A6813469B0013442C
:100C9C00233B00FA03F27B681B680A431A631BE0D0
:100CAC007B681B68D96A3B685A6813469B001344DF
:100CBC00413B1F2202FA03F3DB4319403B681868DF
:100CCC003B685A6813469B001344413B00FA03F2FD
:100CDC007B681B680A43DA623B681B68092B1CD9CA
:100CEC007B681B68D9683B681A6813465B00134421
:100CFC001E3B072202FA03F3DB4319403B6898685A
:100D0C003B681A6813465B0013441E3B00FA03F25F
:100D1C007B681B680A43DA6019E07B681B681969F9
:100D2C003B681A6813465B001344072202FA03F36C
:100D3C00DB4319403B6898683B681A6813465B00B4
:100D4C00134400FA03F27B681B680A431A613B6880
:100D5C001B68102B03D03B681B68112B32D17B68AE
:100D6C001B681D4A934225D17B681B689B6803F462
:100D7C000003002B26D17B681B689A687B681B6874
:100D8C0042F400029A603B681B68102B1AD1134B7B
:100D9C001B68134AA2FB03239A0C13469B001344B3
:100DAC005B00BB6002E0BB68013BBB60BB68002B17
:100DBC00F9D107E07B689B6A43F020027B689A625A
:100DCC000123FB737B68002283F82420FB7B1846ED
:100DDC001437BD4680BC7047002401400000002041
:100DEC0083DE1B4380B584B000AF78600023FB60CA
:100DFC000023BB607B681B689B6803F00103012B1D
:100E0C0040D07B681B689A687B681B6842F00102C3
:100E1C009A601F4B1B681F4AA2FB03239B0CBB60F1
:100E2C0002E0BB68013BBB60BB68002BF9D1FFF74C
:100E3C0013FCF8601FE0FFF70FFC0246FB68D31AA7
:100E4C00022B18D97B681B689B6803F00103012BEC
:100E5C0011D07B689B6A43F010027B689A627B68B6
:100E6C00DB6A43F001027B68DA627B68002283F85C
:100E7C002420012307E07B681B689B6803F00103B7
:100E8C00012BD8D1002318461037BD4680BD00BFBA
:100E9C000000002083DE1B4380B584B000AF786077
:100EAC000023FB607B681B689B6803F00103012B2C
:100EBC002ED17B681B689A687B681B6822F0010244
:100ECC009A60FFF7C9FBF8601BE0FFF7C5FB024611
:100EDC00FB68D31A022B14D97B681B689B6803F040
:100EEC000103012B0DD17B689B6A43F010027B68D8
:100EFC009A627B68DB6A43F001027B68DA62012349
:100F0C0007E07B681B689B6803F00103012BDCD0B6
:100F1C00002318461037BD4680BD000090B587B041
:100F2C0000AF78600023FB750023FB607B6893F8AF
:100F3C002430012B01D1022397E07B68012283F836
:100F4C0024207868FFF7A8FF0346FB757868FFF745
:100F5C0049FF0346FB75FB7D002B40F081807B68CD
:100F6C009B6A23F4885323F0020343F002027B684C
:100F7C009A62404B1C68022002F048FD0346B4FB09
:100F8C00F3F35B00FB6002E0FB68013BFB60FB687A
:100F9C00002BF9D17B681B689A687B681B6842F050
:100FAC0008029A60FFF758FB38611BE0FFF754FB0F
:100FBC0002463B69D31A0A2B14D97B681B689B68C1
:100FCC0003F00803002B0DD07B689B6A23F01203FF
:100FDC0043F010027B689A627B68002283F824201D
:100FEC00012342E07B681B689B6803F00803002B1D
:100FFC00DCD17B681B689A687B681B6842F0040232
:10100C009A60FFF729FB38611BE0FFF725FB0246CE
:10101C003B69D31A0A2B14D97B681B689B6803F0B5
:10102C000403002B0DD07B689B6A23F0120343F062
:10103C0010027B689A627B68002283F824200123CB
:10104C0013E07B681B689B6803F00403002BDCD166
:10105C007B689B6A23F0030343F001027B689A626E
:10106C007B68002283F82420FB7D18461C37BD4684
:10107C0090BD00BF0000002080B485B000AF786048
:10108C007B6803F00703FB600C4BDB68BB60BA6842
:10109C004FF6FF031340BB60FB681A02BB68134397
:1010AC0043F0BF6343F40033BB60044ABB68D360B6
:1010BC0000BF1437BD4680BC704700BF00ED00E098
:1010CC0080B400AF044BDB681B0A03F0070318461F
:1010DC00BD4680BC704700BF00ED00E080B483B01B
:1010EC0000AF0346FB7197F90730002B0BDBFB7944
:1010FC0003F01F02064997F907305B09012000FA3B
:10110C0002F241F8232000BF0C37BD4680BC70476B
:10111C0000E100E080B483B000AF03463960FB719E
:10112C0097F90730002B0ADB3B68DAB20C4997F9C8
:10113C0007301201D2B20B4483F800230AE03B685B
:10114C00DAB20849FB7903F00F03043B1201D2B267
:10115C000B441A7600BF0C37BD4680BC704700BFED
:10116C0000E100E000ED00E080B489B000AFF86071
:10117C00B9607A60FB6803F00703FB61FB69C3F19C
:10118C000703042B28BF0423BB61FB690433062B24
:10119C0002D9FB69033B00E000237B614FF0FF3277
:1011AC00BB6902FA03F3DA43BB681A407B699A40C5
:1011BC004FF0FF317B6901FA03F3D9437B680B4095
:1011CC00134318462437BD4680BC704780B582B0A7
:1011DC0000AF78607B68013BB3F1807F01D30123C2
:1011EC000FE00A4A7B68013B53600F214FF0FF3040
:1011FC00FFF790FF054B00229A60044B07221A6000
:10120C00002318460837BD4680BD00BF10E000E043
:10121C0080B582B000AF78607868FFF72DFF00BF13
:10122C000837BD4680BD80B586B000AF0346B960B7
:10123C007A60FB7300237B61FFF742FF78617A6869
:10124C00B9687869FFF790FF024697F90F3011469D
:10125C001846FFF75FFF00BF1837BD4680BD80B54D
:10126C0082B000AF0346FB7197F907301846FFF7C1
:10127C0035FF00BF0837BD4680BD80B582B000AFDA
:10128C0078607868FFF7A2FF034618460837BD461A
:10129C0080BD000080B48BB000AF78603960002353
:1012AC007B6200233B6269E101227B6A02FA03F351
:1012BC00FB613B681B68FA691340BB61BA69FB6947
:1012CC009A4240F058813B685B689A4A93425ED0E0
:1012DC00984A934275D8984A934258D0964A93426A
:1012EC006FD8964A934252D0944A934269D8944A02
:1012FC0093424CD0924A934263D8924A934246D03E
:10130C00904A93425DD8122B2AD8122B59D801A29D
:10131C0052F823F09B13000875130008871300087C
:10132C00C9130008CF130008CF130008CF1300080F
:10133C00CF130008CF130008CF130008CF130008F9
:10134C00CF130008CF130008CF130008CF130008E9
:10135C00CF130008CF1300087D1300089113000869
:10136C00794A934213D02CE03B68DB683B6229E05E
:10137C003B68DB6804333B6224E03B68DB68083382
:10138C003B621FE03B68DB680C333B621AE03B6856
:10139C009B68002B02D104233B6213E03B689B68E3
:1013AC00012B05D108233B627B68FA691A6109E0BD
:1013BC0008233B627B68FA695A6103E000233B62B5
:1013CC0000E000BFBB69FF2B01D87B6801E07B68A4
:1013DC0004337B61BB69FF2B02D87B6A9B0002E064
:1013EC007B6A083B9B003B617B691A680F213B6958
:1013FC0001FA03F3DB431A40396A3B6901FA03F340
:10140C001A437B691A603B685B6803F08053002BBE
:10141C0000F0B1804D4B9B694C4A43F00103936142
:10142C004A4B9B6903F00103BB60BB68484A7B6A6B
:10143C009B08023352F82330FB607B6A03F00303F2
:10144C009B000F2202FA03F3DB43FA681340FB60A4
:10145C007B68404A934213D07B683F4A93420DD03D
:10146C007B683E4A934207D07B683D4A934201D148
:10147C00032306E0042304E0022302E0012300E03E
:10148C0000237A6A02F0030292009340FA68134335
:10149C00FB602F497B6A9B080233FA6841F82320D2
:1014AC003B685B6803F48013002B06D02D4B9A68C5
:1014BC002C49BB6913438B6006E02A4B9A68BB69C5
:1014CC00DB43284913408B603B685B6803F40013D3
:1014DC00002B06D0234BDA682249BB691343CB603F
:1014EC0006E0204BDA68BB69DB431E491340CB6036
:1014FC003B685B6803F40033002B06D0194B5A6829
:10150C001849BB6913434B6006E0164B5A68BB691C
:10151C00DB43144913404B603B685B6803F4803336
:10152C00002B21D00F4B1A680E49BB6913430B607B
:10153C0021E000BF0000321000003110000022102A
:10154C0000002110000012100000111000100240C9
:10155C000000014000080140000C01400010014057
:10156C0000140140000401400B4B1A68BB69DB43BB
:10157C00094913400B607B6A01337B623B681A6834
:10158C007B6A22FA03F3002B7FF48EAE00BF00BF00
:10159C002C37BD4680BC70470004014080B483B03A
:1015AC0000AF78600B467B8013467B707B78002BFA
:1015BC0003D07A887B681A6103E07B881A047B6805
:1015CC001A6100BF0C37BD4680BC7047F0B58BB0BC
:1015DC0006AF78607B68002B01D10123F1E07B68BA
:1015EC0093F8A932DBB2002B06D17B68002283F87A
:1015FC00A822786806F0B8FB7B68032283F8A9223E
:10160C007B681B68184602F0DDFA7B681B683B6040
:10161C007E686D4606F110040FCC0FC523682B6055
:10162C00331D0ECB386802F0A7FA0346002B05D009
:10163C007B68022283F8A9220123C2E07B681B6825
:10164C000021184602F0D8FA0023FB7340E0FB7B24
:10165C0079685A1C13469B001344DB000B4401337E
:10166C0001221A70FB7B79685A1C13469B001344A9
:10167C00DB000B44FA7B1A70FB7B79685A1C13460F
:10168C009B001344DB000B44033300221A70FA7BDB
:10169C00796813469B001344DB000B44383300225B
:1016AC001A60FA7B796813469B001344DB000B44E9
:1016BC003C3300221A60FA7B796813469B00134472
:1016CC00DB000B44403300221A60FB7B0133FB73BD
:1016DC00FA7B7B685B689A42B9D30023FB7344E0C6
:1016EC00FA7B796813469B001344DB000B4403F22E
:1016FC00691300221A70FA7B796813469B00134415
:10170C00DB000B4403F5B473FA7B1A70FA7B79682F
:10171C0013469B001344DB000B4403F26B130022B3
:10172C001A70FA7B796813469B001344DB000B4458
:10173C0003F5BC7300221A60FA7B796813469B0090
:10174C001344DB000B4403F5BE7300221A60FA7BD2
:10175C00796813469B001344DB000B4403F5C073FC
:10176C0000221A60FB7B0133FB73FA7B7B685B689E
:10177C009A42B5D37B681B683B607E686D4606F168
:10178C0010040FCC0FC523682B60331D0ECB3868AB
:10179C0002F03EFA0346002B05D07B68022283F848
:1017AC00A92201230DE07B68002283F824207B68AA
:1017BC00012283F8A9227B681B68184604F0BFFC41
:1017CC00002318461437BD46F0BD80B582B000AF7B
:1017DC0078607B6893F8A832012B01D1022316E0C4
:1017EC007B68012283F8A8227B681B68184602F0EC
:1017FC00D3F90121786806F02AFD7B681B6818462E
:10180C0004F093FC7B68002283F8A822002318467E
:10181C000837BD4680BD80B588B000AF78607B6866
:10182C001B68184604F095FCB861BB6903F40043CF
:10183C00002B03D0786800F01BFB19E1BB6903F4A3
:10184C008063002B13D07B681B68B3F844309AB2CA
:10185C007B681B6822F4806292B2A3F844207868FB
:10186C0006F0FDFA0021786800F005F900E1BB698B
:10187C0003F48043002B0CD07B681B68B3F8443016
:10188C009AB27B681B6822F4804292B2A3F844207F
:10189C00EEE0BB6903F40053002B0CD07B681B6893
:1018AC00B3F844309AB27B681B6822F4005292B2AF
:1018BC00A3F84420DCE0BB6903F48053002B27D051
:1018CC007B681B68B3F840309AB27B681B6822F0C7
:1018DC00040292B2A3F840207B681B68B3F8403036
:1018EC009AB27B681B6822F0080292B2A3F84020DF
:1018FC00786806F0EDFA7B681B68B3F844309AB24E
:10190C007B681B6822F4805292B2A3F84420AFE0AB
:10191C00BB6903F40063002B00F083800023FB778A
:10192C0010E07B681B681A46FB7F9B001A44FB7F08
:10193C00128892B25B0020333B4423F8182CFB7FB7
:10194C000133FB77FB7F072BEBD97B681B68B3F864
:10195C0040309AB27B681B6842F0010292B2A3F845
:10196C0040207B681B68B3F840309AB27B681B68D8
:10197C0022F0010292B2A3F8402000BF7B681B68E2
:10198C00B3F844309BB203F48063002BF6D07B6831
:10199C001B68B3F844309AB27B681B6822F48062EF
:1019AC0092B2A3F844200023FB770FE0FB7F7A6808
:1019BC0012681146FA7F92000A445B0020333B44C4
:1019CC0033F8183C1380FB7F0133FB77FB7F072B2D
:1019DC00ECD97B681B68B3F840309AB27B681B6803
:1019EC0042F0080292B2A3F840207B681B68B3F85F
:1019FC0044309AB27B681B6822F4006292B2A3F85E
:101A0C0044207B681B68B3F840309AB27B681B6833
:101A1C0042F0040292B2A3F84020786806F03EFA35
:101A2C0026E0BB6903F40073002B0FD07B681B68A6
:101A3C00B3F844309AB27B681B6822F4007292B2FD
:101A4C00A3F84420786806F0FCF911E0BB6903F4B4
:101A5C008073002B0CD07B681B68B3F844309AB2AF
:101A6C007B681B6822F4807292B2A3F8442000BFFA
:101A7C002037BD4680BD80B582B000AF78600B4684
:101A8C00FB707B6893F8A832012B01D1022313E081
:101A9C007B68012283F8A8227B68FA7883F82420DB
:101AAC007B681B68FA781146184604F02BFB7B68A0
:101ABC00002283F8A822002318460837BD4680BDB3
:101ACC0080B584B000AF7860084611461A460346CC
:101ADC00FB700B463B801346BB700023FB7297F9DF
:101AEC000330002B0EDAFB7803F007035A1C134665
:101AFC009B001344DB007A681344FB60FB680122F3
:101B0C005A700EE0FB7803F0070213469B00134457
:101B1C00DB0003F5B4737A681344FB60FB680022A6
:101B2C005A70FB7803F00703DAB2FB681A703A8834
:101B3C00FB681A61FB68BA78DA70BB78022B02D1A9
:101B4C00FB6800221A717B6893F8A832012B01D133
:101B5C0002230EE07B68012283F8A8227B681B68B5
:101B6C00F968184602F074F87B68002283F8A82202
:101B7C00FB7A18461037BD4680BD80B584B000AFE7
:101B8C0078600B46FB7097F90330002B0EDAFB786C
:101B9C0003F007035A1C13469B001344DB007A68BE
:101BAC001344FB60FB6801225A700EE0FB7803F0D3
:101BBC00070213469B001344DB0003F5B4737A68E9
:101BCC001344FB60FB6800225A70FB7803F0070398
:101BDC00DAB2FB681A707B6893F8A832012B01D13A
:101BEC0002230EE07B68012283F8A8227B681B6825
:101BFC00F968184602F0ECFB7B68002283F8A822F7
:101C0C00002318461037BD4680BD80B586B000AFA6
:101C1C00F8607A603B600B46FB72FB7A03F00702BC
:101C2C0013469B001344DB0003F5B473FA681344AA
:101C3C007B617B697A685A617B693A689A617B69D6
:101C4C000022DA617B6900225A70FB7A03F00703E9
:101C5C00DAB27B691A70FB681B687969184602F066
:101C6C00A3FD002318461837BD4680BD80B483B051
:101C7C0000AF78600B46FB70FB7803F007027968C5
:101C8C0013469B001344DB000B4403F5C2731B6823
:101C9C0018460C37BD4680BC704780B586B000AF87
:101CAC00F8607A603B600B46FB72FB7A03F007032B
:101CBC005A1C13469B001344DB00FA6813447B61E7
:101CCC007B697A685A617B693A689A617B690122FF
:101CDC0083F824207B693A681A627B690022DA61F6
:101CEC007B6901225A70FB7A03F00703DAB27B6935
:101CFC001A70FB681B687969184602F055FD0023C1
:101D0C0018461837BD4680BD80B584B000AF7860EA
:101D1C000B46FB70FB7803F007027B685B689A420A
:101D2C0001D901234CE097F90330002B0EDAFB7834
:101D3C0003F007035A1C13469B001344DB007A681C
:101D4C001344FB60FB6801225A700CE0FA781346CE
:101D5C009B001344DB0003F5B4737A681344FB60F7
:101D6C00FB6800225A70FB6801229A70FB7803F022
:101D7C000703DAB2FB681A707B6893F8A832012B60
:101D8C0001D102231CE07B68012283F8A8227B6826
:101D9C001B68F968184604F0B8F8FB7803F00703E1
:101DAC00002B08D17B681A687B6803F52C731946E5
:101DBC00104604F0DDF97B68002283F8A82200238A
:101DCC0018461037BD4680BD80B584B000AF786032
:101DDC000B46FB70FB7803F00F027B685B689A4242
:101DEC0001D9012340E097F90330002B0EDAFB7880
:101DFC0003F007035A1C13469B001344DB007A685C
:101E0C001344FB60FB6801225A700EE0FB7803F070
:101E1C00070213469B001344DB0003F5B4737A6886
:101E2C001344FB60FB6800225A70FB6800229A7016
:101E3C00FB7803F00703DAB2FB681A707B6893F83F
:101E4C00A832012B01D102230EE07B68012283F81A
:101E5C00A8227B681B68F968184604F0A6F87B6812
:101E6C00002283F8A822002318461037BD4680BDF7
:101E7C0080B596B000AF7860BEE37B681B68B3F8A2
:101E8C004430A7F84E30B7F84E30DBB203F00F03F6
:101E9C0087F84D3097F84D30002B40F07881B7F82B
:101EAC004E3003F01003002B51D17B681B681B884C
:101EBC009BB223F4E14323F07003FB817B681A6827
:101ECC00FB896FEA43436FEA53439BB213807B68F1
:101EDC0028337B657B681B68B3F850309BB21A467D
:101EEC007B6D1B78DB00134402335B007A6812684D
:101EFC00134403F580631B88C3F309027B6DDA611D
:101F0C007B6D5A697B6DDB691A447B6D5A610021CC
:101F1C00786805F07CFF7B6893F82430DBB2002BEB
:101F2C0000F06A837B6D9B69002B40F065837B68B6
:101F3C0093F82430DBB263F07F03DAB27B681B6862
:101F4C00A3F84C207B68002283F8242054E37B68A0
:101F5C0003F5B4737B657B681B681B88A7F84A3054
:101F6C00B7F84A3003F40063002B34D07B681B684D
:101F7C00B3F850309BB21A467B6D1B78DB001344D0
:101F8C0006335B007A681268134403F580631B8880
:101F9C00C3F309027B6DDA617B6818687B6803F513
:101FAC002C717B6DDA887B6DDB699BB204F030F9A8
:101FBC007B681B681B889AB240F68F7313403B8278
:101FCC007B681B683A8A42F0800292B21A80786869
:101FDC0005F0F0FE10E3B7F94A30002B80F20C83C9
:101FEC007B681B681B889AB240F68F731340FB8387
:101FFC007B681B68FA8B42F0800292B21A807B6875
:10200C001B68B3F850309BB21A467B6D1B78DB0013
:10201C00134406335B007A681268134403F580633B
:10202C001B88C3F309027B6DDA617B6DDB69002BC6
:10203C0019D07B6D5B69002B15D07B6818687B6DA4
:10204C0059697B6DDA887B6DDB699BB204F0E0F833
:10205C007B6D5A697B6DDB691A447B6D5A6100217B
:10206C00786805F0B9FE7B681B681B88A7F84A30B6
:10207C00B7F84A3003F40063002B40F0BD82B7F888
:10208C004A3003F44053B3F5405F00F0B5827B68EF
:10209C001B68BB617B681B68B3F850309BB21A4657
:1020AC00BB691344BB61BB6903F20C437B617B6965
:1020BC001B889BB2C3F309039AB27B691A807B6DB0
:1020CC001B693E2B1DD97B6D1B695B097B647B6D8A
:1020DC001B6903F01F03002B02D17B6C013B7B645B
:1020EC007B691B889AB27B6C9BB29B029BB213439D
:1020FC009BB26FEA43436FEA53439AB27B691A80EF
:10210C0026E07B6D1B69002B0AD17B691B889BB277
:10211C006FEA43436FEA53439AB27B691A8017E024
:10212C007B6D1B695B087B647B6D1B6903F0010392
:10213C00002B02D07B6C01337B647B691B889AB2C9
:10214C007B6C9BB29B029BB213439AB27B691A8045
:10215C007B681B681B889BB223F4804323F07003BD
:10216C007B827B8A83F480537B827B8A83F400534B
:10217C007B827B681A687B8A43F07F4343F47F033E
:10218C0043F4004343F080039BB2138034E27B683A
:10219C001B681A4697F84D309B0013441B88A7F810
:1021AC004A30B7F94A30002B80F2FC807B681B6800
:1021BC001A4697F84D309B0013441B889AB240F690
:1021CC008F731340A7F848307B681B681A4697F842
:1021DC004D309B001344B7F8482042F0800292B275
:1021EC001A8097F84D2013469B001344DB0003F52F
:1021FC00B4737A6813447B657B6D1B7B002B25D1F4
:10220C007B681B68B3F850309BB21A467B6D1B7809
:10221C00DB00134406335B007A681268134403F541
:10222C0080631B88C3F30903A7F85030B7F850300C
:10223C00002B00F092807B6818687B6D59697B6D70
:10224C00DA88B7F8503003F0E3FF86E07B6DDB787B
:10225C00022B0AD1B7F84A301A46796D786800F02B
:10226C00D9F90346A7F8503077E07B681B681A460B
:10227C007B6D1B789B0013441B889BB223F4E043BB
:10228C0023F07003A7F852307B681B681A467B6DED
:10229C001B789B001A44B7F8523043F07F4343F449
:1022AC007F0343F4004343F0C0039BB213807B686D
:1022BC001B681A467B6D1B789B0013441B889BB2D2
:1022CC0003F48043002B24D07B681B68B3F8503098
:1022DC009BB21A467B6D1B78DB00134402335B0008
:1022EC007A681268134403F580631B88C3F30903EF
:1022FC00A7F85030B7F85030002B2ED07B681868F8
:10230C007B6D59697B6D1A89B7F8503003F080FFEB
:10231C0023E07B681B68B3F850309BB21A467B6D88
:10232C001B78DB00134406335B007A681268134495
:10233C0003F580631B88C3F30903A7F85030B7F883
:10234C005030002B09D07B6818687B6D59697B6D08
:10235C005A89B7F8503003F05BFF7B6DDA69B7F838
:10236C0050301A447B6DDA617B6D5A69B7F8503086
:10237C001A447B6D5A617B6D9B69002B05D0B7F8B5
:10238C0050207B6D1B699A4206D27B6D1B781946D7
:10239C00786805F021FD05E07B681B68796D1846AF
:1023AC0002F002FAB7F84A3003F08003002B00F079
:1023BC00238197F84D305A1C13469B001344DB00C5
:1023CC007A6813447B657B681B681A4697F84D3016
:1023DC009B0013441B889BB223F4E14323F070034E
:1023EC00A7F842307B681B681A4697F84D309B0063
:1023FC001A44B7F842306FEA43436FEA53439BB237
:10240C0013807B6DDB78012B40F0A2807B6D00226A
:10241C009A617B6D1B7B002B00F09380B7F84A30E0
:10242C0003F04003002B46D07B6D5B78002B26D14C
:10243C007B681B687B627B681B68B3F850309BB26F
:10244C001A467B6A13447B627B6D1B781A017B6A8C
:10245C00134403F204433B623B6A1B889BB2C3F3F5
:10246C0009039AB23B6A1A803B6A1B889BB26FEADB
:10247C0043436FEA53439AB23B6A1A8061E07B6D27
:10248C005B78012B5DD17B681B68FB627B681B68EA
:10249C00B3F850309BB21A46FB6A1344FB627B6D57
:1024AC001B781A01FB6A134403F20443BB62BB6A38
:1024BC0000221A8045E07B681B68FB637B6D5B78B0
:1024CC00002B26D17B681B687B637B681B68B3F889
:1024DC0050309BB21A467B6B13447B637B6D1B782D
:1024EC001A017B6B134403F20C433B633B6B1B885D
:1024FC009BB2C3F309039AB23B6B1A803B6B1B88EC
:10250C009BB26FEA43436FEA53439AB23B6B1A8018
:10251C0017E07B6D5B78012B13D17B681B68B3F8DC
:10252C0050309BB21A46FB6B1344FB637B6D1B78DC
:10253C001A01FB6B134403F20C43BB63BB6B00220D
:10254C001A807B6D1B781946786805F060FC53E0A7
:10255C00B7F84A3003F48073002B46D17B681B68B4
:10256C00B3F850309BB21A467B6D1B78DB001344DA
:10257C0002335B007A681268134403F580631B888E
:10258C00C3F30903A7F840307B6D9A69B7F8403064
:10259C009A4207D97B6D9A69B7F84030D21A7B6D95
:1025AC009A6102E07B6D00229A617B6D9B69002B26
:1025BC0006D17B6D1B781946786805F028FC1BE06A
:1025CC007B6D5A69B7F840301A447B6D5A617B6D4C
:1025DC00DA69B7F840301A447B6DDA617B681B68A6
:1025EC00796D184602F0E0F806E0B7F84A301A4662
:1025FC00796D786800F01BF97B681B68B3F8443080
:10260C009BB21BB2002BFFF638AC00231846583790
:10261C00BD4680BD80B588B000AFF860B960134688
:10262C00FB80FB8803F48043002B7ED0FB681B6887
:10263C00B3F850309BB21A46BB681B78DB001344CE
:10264C0002335B00FA681268134403F580631B883D
:10265C00C3F309037B83BB689A697B8B9A4206D3CD
:10266C00BB689A697B8BD21ABB689A6102E0BB6823
:10267C0000229A61BB689B69002B23D1FB681B6805
:10268C001A46BB681B789B0013441B889BB223F42F
:10269C00804323F070033B833B8B83F400533B83D9
:1026AC00FB681B681A46BB681B789B001A443B8B63
:1026BC0043F07F4343F47F0343F4004343F0800330
:1026CC009BB21380FB8803F04003002B1FD0FB68E8
:1026DC001B681A46BB681B789B0013441B889BB273
:1026EC0023F4E04323F07003FB82FB681B681A465B
:1026FC00BB681B789B001A44FB8A43F07F4343F46E
:10270C007F0343F4004343F0C0039BB213807B8BE5
:10271C00002B00F08780FB681868BB685969BB68A0
:10272C001A897B8B03F074FD7CE0FB681B68B3F8A3
:10273C0050309BB21A46BB681B78DB00134406333F
:10274C005B00FA681268134403F580631B88C3F3BB
:10275C0009037B83BB689A697B8B9A4206D3BB685F
:10276C009A697B8BD21ABB689A6102E0BB68002223
:10277C009A61BB689B69002B23D1FB681B681A46C6
:10278C00BB681B789B0013441B889BB223F48043CB
:10279C0023F07003FB83FB8B83F40053FB83FB68F8
:1027AC001B681A46BB681B789B001A44FB8B43F0D2
:1027BC007F4343F47F0343F4004343F080039BB215
:1027CC001380FB8803F04003002B1FD1FB681B68B0
:1027DC001A46BB681B789B0013441B889BB223F4DE
:1027EC00E04323F07003BB83FB681B681A46BB688D
:1027FC001B789B001A44BB8B43F07F4343F47F034D
:10280C0043F4004343F0C0039BB213807B8B002B3B
:10281C0008D0FB681868BB685969BB685A897B8B00
:10282C0003F0F6FC7B8B18462037BD4680BD80B587
:10283C00A4B000AFF860B9601346FB80FB8803F0CE
:10284C004003002B00F0DD81FB681B68B3F85030AF
:10285C009BB21A46BB681B78DB00134402335B0047
:10286C00FA681268134403F580631B88C3F30903E9
:10287C00A7F88630BB689A69B7F886309A4207D9B0
:10288C00BB689A69B7F88630D21ABB689A6102E0C5
:10289C00BB6800229A61BB689B69002B40F0B98031
:1028AC00BB685B78002B26D1FB681B68FB62FB685E
:1028BC001B68B3F850309BB21A46FB6A1344FB6298
:1028CC00BB681B781A01FB6A134403F20443BB6216
:1028DC00BB6A1B889BB2C3F309039AB2BB6A1A800A
:1028EC00BB6A1B889BB26FEA43436FEA53439AB2AD
:1028FC00BB6A1A801AE0BB685B78012B16D1FB68A7
:10290C001B687B63FB681B68B3F850309BB21A469C
:10291C007B6B13447B63BB681B781A017B6B134482
:10292C0003F204433B633B6B00221A80FB681B6879
:10293C007B62BB685B78002B26D1FB681B68FB6154
:10294C00FB681B68B3F850309BB21A46FB69134402
:10295C00FB61BB681B781A01FB69134403F20C433F
:10296C00BB61BB691B889BB2C3F309039AB2BB69F9
:10297C001A80BB691B889BB26FEA43436FEA5343CF
:10298C009AB2BB691A8017E0BB685B78012B13D134
:10299C00FB681B68B3F850309BB21A467B6A134431
:1029AC007B62BB681B781A017B6A134403F20C43ED
:1029BC003B623B6A00221A80BB681B781946F86898
:1029CC0005F025FAFB8803F48043002B00F0FC8211
:1029DC00FB681B681A46BB681B789B0013441B885A
:1029EC009BB223F4E04323F07003FB82FB681B686B
:1029FC001A46BB681B789B001A44FB8A43F07F4342
:102A0C0043F47F0343F4404343F080039BB21380B1
:102A1C00DAE2FB8803F48043002B21D0FB681B68AF
:102A2C001A46BB681B789B0013441B889BB223F48B
:102A3C00E04323F07003A7F88A30FB681B681A4642
:102A4C00BB681B789B001A44B7F88A3043F07F436D
:102A5C0043F47F0343F4404343F080039BB2138061
:102A6C00BB6893F82430012B40F0AE82BB685A69E6
:102A7C00B7F886301A44BB685A61BB68DA69B7F894
:102A8C0086301A44BB68DA61BB681A6ABB681B697A
:102A9C009A420BD3BB681B69C7F88C30BB681A6AA7
:102AAC00D7F88C30D21ABB681A6217E0BB681B6A65
:102ABC00002B08D1B7F88630C7F88C30BB680022E1
:102ACC0083F824200AE0BB68002283F82420BB682A
:102ADC001B6AC7F88C30BB6800221A62BB685B7833
:102AEC00002B65D1FB681B68FB63FB681B68B3F8A4
:102AFC0050309BB21A46FB6B1344FB63BB681B78CC
:102B0C001A01FB6B134403F20443BB63BB6B1B88BE
:102B1C009BB2C3F309039AB2BB6B1A80D7F88C3003
:102B2C003E2B1DD9D7F88C305B09BB64D7F88C30A1
:102B3C0003F01F03002B02D1BB6C013BBB64BB6BCE
:102B4C001B889AB2BB6C9BB29B029BB213439BB289
:102B5C006FEA43436FEA53439AB2BB6B1A8044E06B
:102B6C00D7F88C30002B0AD1BB6B1B889BB26FEA59
:102B7C0043436FEA53439AB2BB6B1A8035E0D7F8E4
:102B8C008C305B08BB64D7F88C3003F00103002B4E
:102B9C0002D0BB6C0133BB64BB6B1B889AB2BB6CA1
:102BAC009BB29B029BB213439AB2BB6B1A801CE084
:102BBC00BB685B78012B18D1FB681B687B64FB68D6
:102BCC001B68B3F850309BB21A467B6C13447B6481
:102BDC00BB681B781A017B6C134403F204433B64FF
:102BEC00D7F88C309AB23B6C1A80FB681868BB68BB
:102BFC005969BB681A89D7F88C309BB203F0C3FAB9
:102C0C00E2E1FB681B68B3F850309BB21A46BB6814
:102C1C001B78DB00134406335B00FA68126813441C
:102C2C0003F580631B88C3F30903A7F88630BB68E0
:102C3C009A69B7F886309A4207D3BB689A69B7F895
:102C4C008630D21ABB689A6102E0BB6800229A6196
:102C5C00BB689B69002B40F0C080BB685B78002B85
:102C6C0026D1FB681B68FB67FB681B68B3F8503008
:102C7C009BB21A46FB6F1344FB67BB681B781A01A7
:102C8C00FB6F134403F20443BB67BB6F1B889BB2FF
:102C9C00C3F309039AB2BB6F1A80BB6F1B889BB23C
:102CAC006FEA43436FEA53439AB2BB6F1A801AE040
:102CBC00BB685B78012B16D1FB681B687B66FB68D5
:102CCC001B68B3F850309BB21A467B6E13447B667C
:102CDC00BB681B781A017B6E134403F204433B66FA
:102CEC003B6E00221A80FB681B687B67BB685B78B5
:102CFC00002B2BD1FB681B68FB66FB681B68B3F8C9
:102D0C0050309BB21A46FB6E1344FB66BB681B78B3
:102D1C001A01FB6E134403F20C43C7F88030D7F84A
:102D2C0080301B889BB2C3F309039AB2D7F880306A
:102D3C001A80D7F880301B889BB26FEA43436FEA46
:102D4C0053439AB2D7F880301A8017E0BB685B788F
:102D5C00012B13D1FB681B68B3F850309BB21A4699
:102D6C007B6F13447B67BB681B781A017B6F134422
:102D7C0003F20C433B673B6F00221A80BB681B7845
:102D8C001946F86805F043F8FB8803F48043002BE0
:102D9C0040F01A81FB681B681A46BB681B789B00C5
:102DAC0013441B889BB223F4E04323F07003A7F871
:102DBC008830FB681B681A46BB681B789B001A445A
:102DCC00B7F8883043F07F4343F47F0343F4404328
:102DDC0043F080039BB21380F6E0FB8803F480433E
:102DEC00002B21D1FB681B681A46BB681B789B0023
:102DFC0013441B889BB223F4E04323F07003A7F821
:102E0C004E30FB681B681A46BB681B789B001A4443
:102E1C00B7F84E3043F07F4343F47F0343F4404311
:102E2C0043F080039BB21380BB6893F82430012BD2
:102E3C0040F0CA80BB685A69B7F886301A44BB6840
:102E4C005A61BB68DA69B7F886301A44BB68DA6134
:102E5C00BB681A6ABB681B699A420BD3BB681B69B7
:102E6C00C7F88C30BB681A6AD7F88C30D21ABB689A
:102E7C001A6217E0BB681B6A002B08D1B7F88630C2
:102E8C00C7F88C30BB68002283F824200AE0BB68AA
:102E9C001B6AC7F88C30BB6800221A62BB68002220
:102EAC0083F82420FB681B687B65BB685B78002B70
:102EBC0065D1FB681B68FB65FB681B68B3F8503079
:102ECC009BB21A46FB6D1344FB65BB681B781A0159
:102EDC00FB6D134403F20C43BB65BB6D1B889BB2AB
:102EEC00C3F309039AB2BB6D1A80D7F88C303E2B12
:102EFC001DD9D7F88C305B09BB66D7F88C3003F042
:102F0C001F03002B02D1BB6E013BBB66BB6D1B8844
:102F1C009AB2BB6E9BB29B029BB213439BB26FEAFD
:102F2C0043436FEA53439AB2BB6D1A8041E0D7F822
:102F3C008C30002B0AD1BB6D1B889BB26FEA4343CC
:102F4C006FEA53439AB2BB6D1A8032E0D7F88C30DB
:102F5C005B08BB66D7F88C3003F00103002B02D062
:102F6C00BB6E0133BB66BB6D1B889AB2BB6E9BB24A
:102F7C009B029BB213439AB2BB6D1A8019E0BB68DB
:102F8C005B78012B15D1FB681B68B3F850309BB2F2
:102F9C001A467B6D13447B65BB681B781A017B6DED
:102FAC00134403F20C433B65D7F88C309AB23B6D5B
:102FBC001A80FB681868BB685969BB685A89D7F8CE
:102FCC008C309BB203F0DFF8FB681B681A46BB68B9
:102FDC001B789B0013441B889BB223F4E04323F023
:102FEC004003BB82BB8A83F01003BB82BB8A83F095
:102FFC002003BB82FB681B681A46BB681B789B00CE
:10300C001A44BB8A43F07F4343F47F0343F40043E9
:10301C0043F080039BB21380002318469037BD46C3
:10302C0080BD80B487B000AFF8607B600B467B81BD
:10303C0013463B817B8903F080039BB2002B0BD0A2
:10304C007B8903F007035A1C13469B001344DB00D7
:10305C00FA6813447B6109E07A8913469B00134498
:10306C00DB0003F5B473FA6813447B613B89002BD6
:10307C0007D17B6900221A737B689AB27B69DA806C
:10308C000BE07B6901221A737B689AB27B691A8107
:10309C007B681B0C9AB27B695A81002318461C373B
:1030AC00BD4680BC7047000080B586B000AF78602C
:1030BC007B68002B01D1012372E27B681B6803F053
:1030CC000103002B00F08780924B5B6803F00C032C
:1030DC00042B0CD08F4B5B6803F00C03082B12D124
:1030EC008C4B5B6803F48033B3F5803F0BD1894B79
:1030FC001B6803F40033002B6CD07B685B68002BDF
:10310C0068D101234CE27B685B68B3F5803F06D144
:10311C00804B1B687F4A43F4803313602EE07B683E
:10312C005B68002B0CD17B4B1B687A4A23F48033F1
:10313C001360784B1B68774A23F4802313601DE0DF
:10314C007B685B68B3F5A02F0CD1724B1B68714A7E
:10315C0043F4802313606F4B1B686E4A43F4803337
:10316C0013600BE06B4B1B686A4A23F480331360CB
:10317C00684B1B68674A23F4802313607B685B6889
:10318C00002B13D0FDF768FA386108E0FDF764FAFC
:10319C0002463B69D31A642B01D9032300E25D4B31
:1031AC001B6803F40033002BF0D014E0FDF754FA45
:1031BC00386108E0FDF750FA02463B69D31A642BDC
:1031CC0001D90323ECE1534B1B6803F40033002BB0
:1031DC00F0D100E000BF7B681B6803F00203002BFA
:1031EC0063D04C4B5B6803F00C03002B0BD0494BAA
:1031FC005B6803F00C03082B1CD1464B5B6803F493
:10320C008033002B16D1434B1B6803F00203002BB9
:10321C0005D07B681B69012B01D00123C0E13D4B1C
:10322C001B6823F0F8027B685B69DB0039491343A8
:10323C000B603AE07B681B69002B20D0364B0122D7
:10324C001A60FDF709FA386108E0FDF705FA024645
:10325C003B69D31A022B01D90323A1E12D4B1B6827
:10326C0003F00203002BF0D02A4B1B6823F0F8026A
:10327C007B685B69DB00274913430B6015E0264B29
:10328C0000221A60FDF7E8F9386108E0FDF7E4F96F
:10329C0002463B69D31A022B01D9032380E11D4B53
:1032AC001B6803F00203002BF0D17B681B6803F052
:1032BC000803002B3AD07B689B69002B19D0174B65
:1032CC0001221A60FDF7C8F9386108E0FDF7C4F96E
:1032DC0002463B69D31A022B01D9032360E10D4B43
:1032EC005B6A03F00203002BF0D0012000F0BAFA65
:1032FC001CE00A4B00221A60FDF7AEF938610FE0B2
:10330C00FDF7AAF902463B69D31A022B08D903230D
:10331C0046E100BF001002400000424280044242DD
:10332C00924B5B6A03F00203002BE9D17B681B68AC
:10333C0003F00403002B00F0A6800023FB758B4BDD
:10334C00DB6903F08053002B0DD1884BDB69874A76
:10335C0043F08053D361854BDB6903F08053BB6032
:10336C00BB680123FB75824B1B6803F48073002B35
:10337C0018D17F4B1B687E4A43F480731360FDF7B2
:10338C006BF9386108E0FDF767F902463B69D31A1F
:10339C00642B01D9032303E1754B1B6803F4807381
:1033AC00002BF0D07B68DB68012B06D16F4B1B6ABE
:1033BC006E4A43F0010313622DE07B68DB68002B3F
:1033CC000CD16A4B1B6A694A23F001031362674BE9
:1033DC001B6A664A23F0040313621CE07B68DB68FB
:1033EC00052B0CD1614B1B6A604A43F0040313623A
:1033FC005E4B1B6A5D4A43F0010313620BE05B4BAF
:10340C001B6A5A4A23F001031362584B1B6A574A32
:10341C0023F0040313627B68DB68002B15D0FDF7E7
:10342C001BF938610AE0FDF717F902463B69D31A1C
:10343C0041F28832934201D90323B1E04B4B1B6A12
:10344C0003F00203002BEED014E0FDF705F9386110
:10345C000AE0FDF701F902463B69D31A41F28832C2
:10346C00934201D903239BE0404B1B6A03F00203F8
:10347C00002BEED1FB7D012B05D13C4BDB693B4A8C
:10348C0023F08053D3617B68DB69002B00F08780CD
:10349C00364B5B6803F00C03082B61D07B68DB694F
:1034AC00022B46D1334B00221A60FDF7D5F8386158
:1034BC0008E0FDF7D1F802463B69D31A022B01D97B
:1034CC0003236DE0294B1B6803F00073002BF0D134
:1034DC007B681B6AB3F5803F08D1244B5B6823F4EF
:1034EC0000327B689B68214913434B601F4B5B6820
:1034FC0023F474127B68196A7B685B6A0B431B4963
:10350C0013434B601B4B01221A60FDF7A5F8386181
:10351C0008E0FDF7A1F802463B69D31A022B01D94A
:10352C0003233DE0114B1B6803F00073002BF0D01C
:10353C0035E0104B00221A60FDF78EF8386108E078
:10354C00FDF78AF802463B69D31A022B01D90323F3
:10355C0026E0064B1B6803F00073002BF0D11EE035
:10356C007B68DB69012B07D1012319E000100240B5
:10357C0000700040600042420B4B5B68FB60FB68D4
:10358C0003F480327B681B6A9A4206D1FB6803F411
:10359C0070127B685B6A9A4201D0012300E0002321
:1035AC0018461837BD4680BD0010024080B584B067
:1035BC0000AF786039607B68002B01D10123D0E02B
:1035CC006A4B1B6803F007033A689A4210D9674BA1
:1035DC001B6823F0070265493B6813430B60634B80
:1035EC001B6803F007033A689A4201D00123B8E044
:1035FC007B681B6803F00203002B20D07B681B68E0
:10360C0003F00403002B05D0594B5B68584A43F474
:10361C00E06353607B681B6803F00803002B05D044
:10362C00534B5B68524A43F460535360504B5B6896
:10363C0023F0F0027B689B684D4913434B607B6819
:10364C001B6803F00103002B40D07B685B68012BE7
:10365C0007D1474B1B6803F40033002B15D1012312
:10366C007FE07B685B68022B07D1414B1B6803F042
:10367C000073002B09D1012373E03D4B1B6803F051
:10368C000203002B01D101236BE0394B5B6823F063
:10369C0003027B685B68364913434B60FCF7DCFF25
:1036AC00F8600AE0FCF7D8FF0246FB68D31A41F237
:1036BC008832934201D9032353E02D4B5B6803F00E
:1036CC000C027B685B689B009A42EBD1274B1B6812
:1036DC0003F007033A689A4210D2244B1B6823F07C
:1036EC00070222493B6813430B60204B1B6803F015
:1036FC0007033A689A4201D0012332E07B681B68C9
:10370C0003F00403002B08D0194B5B6823F4E06230
:10371C007B68DB68164913434B607B681B6803F0BE
:10372C000803002B09D0124B5B6823F460527B68B2
:10373C001B69DB000E4913434B6000F021F8024675
:10374C000B4B5B681B0903F00F030A49CB5C22FA95
:10375C0003F3094A1360094B1B681846FCF73AFF40
:10376C00002318461037BD4680BD00BF0020024024
:10377C0000100240B88C000800000020040000205B
:10378C0080B487B000AF0023FB600023BB60002334
:10379C007B6100237B6000233B611E4B5B68FB60FD
:1037AC00FB6803F00C03042B02D0082B03D027E09A
:1037BC00194B3B6127E0FB689B0C03F00F03174A86
:1037CC00D35C7B60FB6803F48033002B10D0114B6F
:1037DC005B685B0C03F00103114AD35CBB607B6834
:1037EC000D4A03FB02F2BB68B2FBF3F37B6104E00E
:1037FC007B680C4A02FB03F37B617B693B6102E053
:10380C00054B3B6100BF3B6918461C37BD4680BC6D
:10381C00704700BF0010024000127A00D08C0008E4
:10382C00E08C000800093D0080B400AF024B1B681F
:10383C001846BD4680BC70470000002080B500AF24
:10384C00FFF7F2FF0246054B5B68DB0A03F0070348
:10385C000349CB5C22FA03F3184680BD00100240EA
:10386C00C88C000880B485B000AF78600A4B1B6828
:10387C000A4AA2FB03235B0A7A6802FB03F3FB6090
:10388C0000BFFB685A1EFA60002BF9D100BF00BFC5
:10389C001437BD4680BC704700000020D34D621029
:1038AC0080B586B000AF786000233B610023FB60DD
:1038BC007B681B6803F00103002B7DD00023FB7594
:1038CC004F4BDB6903F08053002B0DD14C4BDB6964
:1038DC004B4A43F08053D361494BDB6903F080536F
:1038EC00BB60BB680123FB75464B1B6803F48073FC
:1038FC00002B18D1434B1B68424A43F4807313606E
:10390C00FCF7AAFE386108E0FCF7A6FE02463B690C
:10391C00D31A642B01D903236DE03A4B1B6803F4D3
:10392C008073002BF0D0364B1B6A03F44073FB60A2
:10393C00FB68002B2ED07B685B6803F44073FA683D
:10394C009A4227D02E4B1B6A23F44073FB602E4BFC
:10395C0001221A602C4B00221A60294AFB68136260
:10396C00FB6803F00103002B14D0FCF775FE3861E3
:10397C000AE0FCF771FE02463B69D31A41F2883229
:10398C00934201D9032336E01D4B1B6A03F002035B
:10399C00002BEED01A4B1B6A23F440727B685B68D9
:1039AC00174913430B62FB7D012B05D1144BDB69CB
:1039BC00134A23F08053D3617B681B6803F0020326
:1039CC00002B08D00E4B5B6823F440427B689B684D
:1039DC000B4913434B607B681B6803F01003002BEF
:1039EC0008D0074B5B6823F480027B68DB680449D2
:1039FC0013434B60002318461837BD4680BD00BFEB
:103A0C0000100240007000404004424280B588B073
:103A1C0000AF786000237B610023FB6100233B61D6
:103A2C000023FB600023BB617B68102B0AD07B68F2
:103A3C00102B00F28A807B68012B45D07B68022B0F
:103A4C0075D082E0464B5B68FB60454B1B6803F00E
:103A5C008073002B7BD0FB689B0C03F00F03414A57
:103A6C00D35C3B61FB6803F48033002B15D03C4BDB
:103A7C005B685B0C03F001033B4AD35C7B61FB6826
:103A8C0003F48033002B0DD0384A7B69B2FBF3F280
:103A9C003B6902FB03F3FB6104E03B69344A02FB24
:103AAC0003F3FB612E4B5B6803F48003B3F5800FCB
:103ABC0002D1FB69BB614AE0FB695B002D4AA2FBAA
:103ACC0003235B08BB6142E0254B1B6AFB60FB6870
:103ADC0003F44073B3F5807F08D1FB6803F0020355
:103AEC00002B03D04FF40043BB611FE0FB6803F4D1
:103AFC004073B3F5007F09D1194B5B6A03F00203E5
:103B0C00002B03D049F64043BB610FE0FB6803F484
:103B1C004073B3F5407F1CD1114B1B6803F4003389
:103B2C00002B16D04FF22443BB6112E011E0FFF7DB
:103B3C0085FE02460A4B5B689B0B03F003030133C3
:103B4C005B00B2FBF3F3BB6104E000BF02E000BF1B
:103B5C0000E000BFBB6918462037BD4680BD00BFE2
:103B6C0000100240E48C0008F48C000800127A006B
:103B7C0000093D00ABAAAAAA84B080B483B000AF00
:103B8C00786007F1140080E80E00002318460C370B
:103B9C00BD4680BC04B0704780B485B000AF78607F
:103BAC007B680022A3F844204FF43F43FB60FB6882
:103BBC009AB27B68A3F84020002318461437BD4600
:103BCC0080BC704780B485B000AF78604FF43F4341
:103BDC00FB607B68B3F840309AB2FB689BB2DB4366
:103BEC009BB213409AB27B68A3F84020002318467E
:103BFC001437BD4680BC704780B483B000AF78608A
:103C0C000B46FB70002318460C37BD4680BC704732
:103C1C0084B080B483B000AF786007F1140080E802
:103C2C000E007B680122A3F840207B680022A3F8D9
:103C3C0040207B680022A3F844207B680022A3F874
:103C4C005020002318460C37BD4680BC04B070478A
:103C5C0080B49DB000AF78603960002387F86F3076
:103C6C007A683B681B789B0013441B889BB223F437
:103C7C00EC4323F07003A7F86C303B68DB78032B24
:103C8C001FD801A252F823F0A53C0008C13C000843
:103C9C00D73C0008B33C0008B7F86C3043F4007311
:103CAC00A7F86C3012E0B7F86C3043F4C063A7F897
:103CBC006C300BE0B7F86C3043F48063A7F86C30D1
:103CCC0004E0012387F86F3000E000BF7A683B689E
:103CDC001B789B001A44B7F86C3043F07F4343F4D5
:103CEC007F0343F4004343F080039BB213807A6854
:103CFC003B681B789B0013441B889BB223F4E04366
:103D0C0023F070039BB23A6812781343A7F866301D
:103D1C007A683B681B789B001A44B7F8663043F00E
:103D2C007F4343F47F0343F4004343F080039BB28F
:103D3C0013803B681B7B002B40F078813B685B78E1
:103D4C00002B00F084807B68BB617B68B3F850303B
:103D5C009BB21A46BB691344BB613B681B781A01C2
:103D6C00BB69134403F580637B613B68DB885B08AC
:103D7C009BB25B009AB27B691A807A683B681B78AD
:103D8C009B0013441B887B827B8A03F04003002B2F
:103D9C001BD07A683B681B789B0013441B889BB232
:103DAC0023F4E04323F070033B827A683B681B7872
:103DBC009B001A443B8A43F07F4343F47F0343F454
:103DCC00004343F0C0039BB213803B68DB78012BAC
:103DDC0020D07A683B681B789B0013441B889BB2ED
:103DEC0023F4E04323F04003BB81BB8983F0200321
:103DFC00BB817A683B681B789B001A44BB8943F0F3
:103E0C007F4343F47F0343F4004343F080039BB2AE
:103E1C001380D5E27A683B681B789B0013441B889F
:103E2C009BB223F4E04323F04003FB817A683B68A8
:103E3C001B789B001A44FB8943F07F4343F47F03B8
:103E4C0043F4004343F080039BB21380B8E27B68D9
:103E5C003B637B68B3F850309BB21A463B6B134400
:103E6C003B633B681B781A013B6B134403F581637E
:103E7C00FB623B68DB885B089BB25B009AB2FB6A17
:103E8C001A807B68BB627B68B3F850309BB21A46D1
:103E9C00BB6A1344BB623B681B781A01BB6A1344B0
:103EAC0003F20C437B627B6A1B889BB2C3F309034E
:103EBC009AB27B6A1A803B681B693E2B1DD93B6802
:103ECC001B695B09BB663B681B6903F01F03002B76
:103EDC0002D1BB6E013BBB667B6A1B889AB2BB6E80
:103EEC009BB29B029BB213439BB26FEA43436FEAB4
:103EFC0053439AB27B6A1A8026E03B681B69002BFD
:103F0C000AD17B6A1B889BB26FEA43436FEA534327
:103F1C009AB27B6A1A8017E03B681B695B08BB6628
:103F2C003B681B6903F00103002B02D0BB6E01330D
:103F3C00BB667B6A1B889AB2BB6E9BB29B029BB220
:103F4C0013439AB27B6A1A807A683B681B789B0091
:103F5C0013441B887B847B8C03F48043002B1BD085
:103F6C007A683B681B789B0013441B889BB223F434
:103F7C00E04323F070033B847A683B681B789B001A
:103F8C001A443B8C43F07F4343F47F0343F4404398
:103F9C0043F080039BB213803B681B78002B24D129
:103FAC007A683B681B789B0013441B889BB223F4F4
:103FBC00804323F07003BB83BB8B83F48053BB83A0
:103FCC00BB8B83F40053BB837A683B681B789B00E4
:103FDC001A44BB8B43F07F4343F47F0343F4004309
:103FEC0043F080039BB21380EAE17A683B681B784C
:103FFC009B0013441B889BB223F4804323F0700373
:10400C00FB83FB8B83F40053FB837A683B681B7840
:10401C009B001A44FB8B43F07F4343F47F0343F430
:10402C00004343F080039BB21380C9E13B68DB780B
:10403C00022B1ED17A683B681B789B0013441B88AB
:10404C009BB223F4E04323F07003A7F862307A6844
:10405C003B681B789B001A44B7F8623043F07F43EF
:10406C0043F47F0343F4014343F080039BB213807A
:10407C001DE07A683B681B789B0013441B889BB23D
:10408C0023F4E24323F07003A7F864307A683B68AA
:10409C001B789B001A44B7F8643043F07F4343F419
:1040AC007F0343F4004343F080039BB213807B688F
:1040BC00FB657B68B3F850309BB21A46FB6D13441A
:1040CC00FB653B681B781A01FB6D134403F5806399
:1040DC00BB653B681B895B089BB25B009AB2BB6DEE
:1040EC001A807B687B657B68B3F850309BB21A46AC
:1040FC007B6D13447B653B681B781A017B6D134405
:10410C0003F581633B653B685B895B089BB25B0095
:10411C009AB23B6D1A803B685B78002B40F0938021
:10412C007A683B681B789B0013441B88A7F84030C7
:10413C00B7F8403003F48043002B1BD07A683B68FF
:10414C001B789B0013441B889BB223F4E04323F0A1
:10415C007003FB877A683B681B789B001A44FB8FC3
:10416C0043F07F4343F47F0343F4404343F0800325
:10417C009BB213807A683B681B789B0013441B88A6
:10418C00BB87BB8F03F04003002B1BD07A683B68C6
:10419C001B789B0013441B889BB223F4E04323F051
:1041AC0070037B877A683B681B789B001A447B8F73
:1041BC0043F07F4343F47F0343F4004343F0C003D5
:1041CC009BB213807A683B681B789B0013441B8856
:1041DC009BB223F4804323F070033B873B8F83F423
:1041EC0080533B873B8F83F400533B877A683B6853
:1041FC001B789B001A443B8F43F07F4343F47F03AF
:10420C0043F4004343F080039BB213807A683B680D
:10421C001B789B0013441B889BB223F4E04323F0D0
:10422C004003FB867A683B681B789B001A44FB8E24
:10423C0043F07F4343F47F0343F4004343F0800394
:10424C009BB21380BCE07A683B681B789B001344DC
:10425C001B88A7F84E30B7F84E3003F48043002B80
:10426C001DD07A683B681B789B0013441B889BB25B
:10427C0023F4E04323F07003A7F84C307A683B68D2
:10428C001B789B001A44B7F84C3043F07F4343F43F
:10429C007F0343F4404343F080039BB213807A685E
:1042AC003B681B789B0013441B88A7F84A30B7F86F
:1042BC004A3003F04003002B1DD07A683B681B7812
:1042CC009B0013441B889BB223F4E04323F0700340
:1042DC00A7F848307A683B681B789B001A44B7F8FB
:1042EC00483043F07F4343F47F0343F4004343F0EF
:1042FC00C0039BB213803B68DB78012B24D07A6817
:10430C003B681B789B0013441B889BB223F4E0434F
:10431C0023F04003A7F84430B7F8443083F020036F
:10432C00A7F844307A683B681B789B001A44B7F8AE
:10433C00443043F07F4343F47F0343F4004343F0A2
:10434C0080039BB213801DE07A683B681B789B004E
:10435C0013441B889BB223F4E04323F04003A7F8DB
:10436C0046307A683B681B789B001A44B7F8463095
:10437C0043F07F4343F47F0343F4004343F0800353
:10438C009BB213807A683B681B789B0013441B8894
:10439C009BB223F4804323F07003A7F842307A6871
:1043AC003B681B789B001A44B7F8423043F07F43BC
:1043BC0043F47F0343F4004343F080039BB2138028
:1043CC0097F86F3018467437BD4680BC704700BFF5
:1043DC0080B48DB000AF786039603B681B7B002BDC
:1043EC0040F08E803B685B78002B44D07A683B6849
:1043FC001B789B0013441B88BB81BB8903F04003D3
:10440C00002B1BD07A683B681B789B0013441B88DD
:10441C009BB223F4E04323F070037B817A683B6802
:10442C001B789B001A447B8943F07F4343F47F0342
:10443C0043F4004343F0C0039BB213807A683B689B
:10444C001B789B0013441B889BB223F4E04323F09E
:10445C0040033B817A683B681B789B001A443B897C
:10446C0043F07F4343F47F0343F4004343F0800362
:10447C009BB2138092E17A683B681B789B001344D3
:10448C001B887B827B8A03F48043002B1BD07A68C9
:10449C003B681B789B0013441B889BB223F4E043BE
:1044AC0023F070033B827A683B681B789B001A44AC
:1044BC003B8A43F07F4343F47F0343F4404343F090
:1044CC0080039BB213807A683B681B789B00134473
:1044DC001B889BB223F4804323F07003FB817A6822
:1044EC003B681B789B001A44FB8943F07F4343F4E1
:1044FC007F0343F4004343F080039BB213804DE1F0
:10450C003B685B78002B40F0A5807A683B681B7891
:10451C009B0013441B883B843B8C03F48043002B8F
:10452C001BD07A683B681B789B0013441B889BB29A
:10453C0023F4E04323F07003FB837A683B681B7819
:10454C009B001A44FB8B43F07F4343F47F0343F4FB
:10455C00404343F080039BB213807A683B681B781E
:10456C009B0013441B88BB83BB8B03F04003002BC5
:10457C001BD07A683B681B789B0013441B889BB24A
:10458C0023F4E04323F070037B837A683B681B7849
:10459C009B001A447B8B43F07F4343F47F0343F42B
:1045AC00004343F0C0039BB213807A683B681B78CE
:1045BC009B0013441B889BB223F4E04323F070034D
:1045CC003B837A683B681B789B001A443B8B43F017
:1045DC007F4343F47F0343F4004343F0C0039BB297
:1045EC0013807A683B681B789B0013441B889BB232
:1045FC0023F4804323F07003FB827A683B681B78BA
:10460C009B001A44FB8A43F07F4343F47F0343F43B
:10461C00004343F080039BB213807A683B681B789D
:10462C009B0013441B889BB223F4E04323F040030C
:10463C00BB827A683B681B789B001A44BB8A43F0A8
:10464C007F4343F47F0343F4004343F080039BB266
:10465C001380A3E07A683B681B789B0013441B888B
:10466C00FB85FB8D03F48043002B1BD07A683B68E1
:10467C001B789B0013441B889BB223F4E04323F06C
:10468C007003BB857A683B681B789B001A44BB8D12
:10469C0043F07F4343F47F0343F4404343F08003F0
:1046AC009BB213807A683B681B789B0013441B8871
:1046BC007B857B8D03F04003002B1BD07A683B6815
:1046CC001B789B0013441B889BB223F4E04323F01C
:1046DC0070033B857A683B681B789B001A443B8DC2
:1046EC0043F07F4343F47F0343F4004343F0C003A0
:1046FC009BB213807A683B681B789B0013441B8821
:10470C009BB223F4E04323F07003FB847A683B688C
:10471C001B789B001A44FB8C43F07F4343F47F03CC
:10472C0043F4404343F080039BB213807A683B68A8
:10473C001B789B0013441B889BB223F4E04323F0AB
:10474C004003BB847A683B681B789B001A44BB8C83
:10475C0043F07F4343F47F0343F4004343F080036F
:10476C009BB213807A683B681B789B0013441B88B0
:10477C009BB223F4804323F070037B847A683B68FC
:10478C001B789B001A447B8C43F07F4343F47F03DC
:10479C0043F4004343F080039BB21380002318467C
:1047AC003437BD4680BC704780B5C2B000AF07F54A
:1047BC008473A3F58273186007F58473A3F584736F
:1047CC00196007F58473A3F584731B685B78012B60
:1047DC0040F0B78607F58473A3F584731B689A6958
:1047EC0007F58473A3F584731B681B699A4208D977
:1047FC0007F58473A3F584731B681B69C7F8043130
:10480C0007E007F58473A3F584731B689B69C7F8ED
:10481C00043107F58473A3F584731B681B7B002B91
:10482C003AD107F58473A3F584731B68596907F5AE
:10483C008473A3F584731B68DA88D7F804319BB2B0
:10484C0007F58470A0F58270006801F09CFC07F5F8
:10485C008473A3F582731B683B6107F58473A3F51E
:10486C0082731B68B3F850309BB21A463B691344F1
:10487C003B6107F58473A3F584731B681B781A01DD
:10488C003B69134403F20443FB60D7F804319AB23A
:10489C00FB681A8000F01FBE07F58473A3F58473C0
:1048AC001B68DB78022B40F0628407F58473A3F558
:1048BC0084731B681A6A07F58473A3F584731B68E9
:1048CC001B699A4240F2DF8307F58473A3F5827368
:1048DC001A6807F58473A3F584731B681B789B0017
:1048EC0013441B889BB223F4E04323F07003A7F816
:1048FC00563007F58473A3F582731A6807F5847331
:10490C00A3F584731B681B789B001A44B7F85630C8
:10491C0043F07F4343F47F0343F4014343F08003AC
:10492C009BB2138007F58473A3F584731B681A6A12
:10493C00D7F80431D21A07F58473A3F584731B6876
:10494C001A6207F58473A3F582731A6807F58473EA
:10495C00A3F584731B681B789B0013441B889BB2C4
:10496C0003F04003002B00F0C78107F58473A3F517
:10497C0082731B683B6307F58473A3F584731B6810
:10498C005B78002B77D107F58473A3F582731B68D2
:10499C00BB6207F58473A3F582731B68B3F85030C0
:1049AC009BB21A46BB6A1344BB6207F58473A3F52A
:1049BC0084731B681B781A01BB6A134403F20C4303
:1049CC007B627B6A1B889BB2C3F309039AB27B6A36
:1049DC001A80D7F804313E2B21D9D7F804315B0962
:1049EC00C7F80031D7F8043103F01F03002B04D1B2
:1049FC00D7F80031013BC7F800317B6A1B889AB2AB
:104A0C00D7F800319BB29B029BB213439BB26FEA67
:104A1C0043436FEA53439AB27B6A1A8050E0D7F84B
:104A2C000431002B0AD17B6A1B889BB26FEA43438B
:104A3C006FEA53439AB27B6A1A8041E0D7F804318B
:104A4C005B08C7F80031D7F8043103F00103002BE1
:104A5C0004D0D7F800310133C7F800317B6A1B88CA
:104A6C009AB2D7F800319BB29B029BB213439AB215
:104A7C007B6A1A8024E007F58473A3F584731B68A2
:104A8C005B78012B1CD107F58473A3F582731B682B
:104A9C00B3F850309BB21A463B6B13443B6307F59B
:104AAC008473A3F584731B681B781A013B6B134446
:104ABC0003F20C43FB62D7F804319AB2FB6A1A80FA
:104ACC0007F58473A3F584731B685B89A7F87630AC
:104ADC0007F58473A3F584731B685969D7F80431FF
:104AEC009BB2B7F8762007F58470A0F58270006849
:104AFC0001F049FB07F58473A3F584731B685A69AD
:104B0C00D7F804311A4407F58473A3F584731B6832
:104B1C005A6107F58473A3F584731B681A6A07F549
:104B2C008473A3F584731B681B699A420FD907F52C
:104B3C008473A3F584731B681A6AD7F80431D21AEC
:104B4C0007F58473A3F584731B681A620EE007F5EE
:104B5C008473A3F584731B681B6AC7F8043107F5CB
:104B6C008473A3F584731B6800221A6207F584739F
:104B7C00A3F584731B685B78002B77D107F58473DE
:104B8C00A3F582731B68BB6107F58473A3F582736D
:104B9C001B68B3F850309BB21A46BB691344BB6117
:104BAC0007F58473A3F584731B681B781A01BB6922
:104BBC00134403F204437B617B691B889BB2C3F3F0
:104BCC0009039AB27B691A80D7F804313E2B21D99C
:104BDC00D7F804315B09C7F8FC30D7F8043103F07F
:104BEC001F03002B04D1D7F8FC30013BC7F8FC3075
:104BFC007B691B889AB2D7F8FC309BB29B029BB2A4
:104C0C0013439BB26FEA43436FEA53439AB27B69F7
:104C1C001A8056E0D7F80431002B0AD17B691B8827
:104C2C009BB26FEA43436FEA53439AB27B691A8093
:104C3C0047E0D7F804315B08C7F8FC30D7F80431EB
:104C4C0003F00103002B04D0D7F8FC300133C7F874
:104C5C00FC307B691B889AB2D7F8FC309BB29B0264
:104C6C009BB213439AB27B691A802AE007F58473CE
:104C7C00A3F584731B685B78012B22D107F5847331
:104C8C00A3F582731B683B6207F58473A3F58273EB
:104C9C001B68B3F850309BB21A463B6A13443B6214
:104CAC0007F58473A3F584731B681B781A013B6AA0
:104CBC00134403F20443FB61D7F804319AB2FB6945
:104CCC001A8007F58473A3F584731B681B89A7F8F6
:104CDC00763007F58473A3F584731B685969D7F88C
:104CEC0004319BB2B7F8762007F58470A0F582707A
:104CFC00006801F048FAEEE307F58473A3F58473BA
:104D0C001B685B78002B77D107F58473A3F582734E
:104D1C001B68BB6407F58473A3F582731B68B3F837
:104D2C0050309BB21A46BB6C1344BB6407F58473BA
:104D3C00A3F584731B681B781A01BB6C134403F234
:104D4C0004437B647B6C1B889BB2C3F309039AB24C
:104D5C007B6C1A80D7F804313E2B21D9D7F804315B
:104D6C005B09C7F8F830D7F8043103F01F03002BA8
:104D7C0004D1D7F8F830013BC7F8F8307B6C1B88AE
:104D8C009AB2D7F8F8309BB29B029BB213439BB2FA
:104D9C006FEA43436FEA53439AB27B6C1A8056E036
:104DAC00D7F80431002B0AD17B6C1B889BB26FEABD
:104DBC0043436FEA53439AB27B6C1A8047E0D7F8AF
:104DCC0004315B08C7F8F830D7F8043103F001035D
:104DDC00002B04D0D7F8F8300133C7F8F8307B6CCF
:104DEC001B889AB2D7F8F8309BB29B029BB2134344
:104DFC009AB27B6C1A802AE007F58473A3F584734E
:104E0C001B685B78012B22D107F58473A3F58273A1
:104E1C001B683B6507F58473A3F582731B68B3F8B5
:104E2C0050309BB21A463B6D13443B6507F58473B7
:104E3C00A3F584731B681B781A013B6D134403F2B2
:104E4C000443FB64D7F804319AB2FB6C1A8007F563
:104E5C008473A3F584731B681B89A7F8763007F558
:104E6C008473A3F584731B685969D7F804319BB21A
:104E7C00B7F8762007F58470A0F58270006801F011
:104E8C0082F907F58473A3F584731B685A69D7F804
:104E9C0004311A4407F58473A3F584731B685A61B3
:104EAC0007F58473A3F584731B681A6A07F584737A
:104EBC00A3F584731B681B699A420FD907F5847399
:104ECC00A3F584731B681A6AD7F80431D21A07F554
:104EDC008473A3F584731B681A620EE007F5847360
:104EEC00A3F584731B681B6AC7F8043107F5847338
:104EFC00A3F584731B6800221A6207F58473A3F56B
:104F0C0082731B683B6407F58473A3F584731B6879
:104F1C005B78002B77D107F58473A3F582731B683C
:104F2C00BB6307F58473A3F582731B68B3F8503029
:104F3C009BB21A46BB6B1344BB6307F58473A3F592
:104F4C0084731B681B781A01BB6B134403F20C436C
:104F5C007B637B6B1B889BB2C3F309039AB27B6B9D
:104F6C001A80D7F804313E2B21D9D7F804315B09CC
:104F7C00C7F8F430D7F8043103F01F03002B04D129
:104F8C00D7F8F430013BC7F8F4307B6B1B889AB22E
:104F9C00D7F8F4309BB29B029BB213439BB26FEADF
:104FAC0043436FEA53439AB27B6B1A8050E0D7F8B5
:104FBC000431002B0AD17B6B1B889BB26FEA4343F5
:104FCC006FEA53439AB27B6B1A8041E0D7F80431F5
:104FDC005B08C7F8F430D7F8043103F00103002B59
:104FEC0004D0D7F8F4300133C7F8F4307B6B1B884E
:104FFC009AB2D7F8F4309BB29B029BB213439AB28D
:10500C007B6B1A8024E007F58473A3F584731B680B
:10501C005B78012B1CD107F58473A3F582731B6895
:10502C00B3F850309BB21A463B6C13443B6407F503
:10503C008473A3F584731B681B781A013B6C1344AF
:10504C0003F20C43FB63D7F804319AB2FB6B1A8062
:10505C0007F58473A3F584731B685B89A7F8763016
:10506C0007F58473A3F584731B685969D7F8043169
:10507C009BB2B7F8762007F58470A0F582700068B3
:10508C0001F081F827E207F58473A3F584731B689C
:10509C001B6AC7F8043107F58473A3F582731A6889
:1050AC0007F58473A3F584731B681B789B0013446A
:1050BC001B889BB223F4E24323F07003A7F8623001
:1050CC0007F58473A3F582731A6807F58473A3F547
:1050DC0084731B681B789B001A44B7F8623043F04A
:1050EC007F4343F47F0343F4004343F080039BB2BC
:1050FC00138007F58473A3F582731B68FB6507F5B2
:10510C008473A3F582731B68B3F850309BB21A46B4
:10511C00FB6D1344FB6507F58473A3F584731B685F
:10512C001B781A01FB6D134403F20443BB65D7F8DB
:10513C0004319AB2BB6D1A8007F58473A3F584739E
:10514C001B681B89A7F8763007F58473A3F5847365
:10515C001B685969D7F804319BB2B7F8762007F56C
:10516C008470A0F58270006801F00DF8B3E107F5CA
:10517C008473A3F584731B681A6AD7F80431D21AA6
:10518C0007F58473A3F584731B681A6207F584739F
:10519C00A3F582731A6807F58473A3F584731B68EF
:1051AC001B789B0013441B889BB203F04003002B1D
:1051BC0000F0C68007F58473A3F582731B683B6708
:1051CC0007F58473A3F584731B685B78002B77D188
:1051DC0007F58473A3F582731B68BB6607F58473AC
:1051EC00A3F582731B68B3F850309BB21A46BB6EA2
:1051FC001344BB6607F58473A3F584731B681B7893
:10520C001A01BB6E134403F20C437B667B6E1B8846
:10521C009BB2C3F309039AB27B6E1A80D7F80431A0
:10522C003E2B21D9D7F804315B09C7F8F030D7F8F9
:10523C00043103F01F03002B04D1D7F8F030013BED
:10524C00C7F8F0307B6E1B889AB2D7F8F0309BB25F
:10525C009B029BB213439BB26FEA43436FEA5343E7
:10526C009AB27B6E1A8050E0D7F80431002B0AD129
:10527C007B6E1B889BB26FEA43436FEA53439AB22F
:10528C007B6E1A8041E0D7F804315B08C7F8F03028
:10529C00D7F8043103F00103002B04D0D7F8F03019
:1052AC000133C7F8F0307B6E1B889AB2D7F8F03018
:1052BC009BB29B029BB213439AB27B6E1A8024E082
:1052CC0007F58473A3F584731B685B78012B1CD1E1
:1052DC0007F58473A3F582731B68B3F850309BB247
:1052EC001A463B6F13443B6707F58473A3F584732D
:1052FC001B681B781A013B6F134403F20C43FB66CB
:10530C00D7F804319AB2FB6E1A8007F58473A3F5B3
:10531C0084731B685B89A7F8763007F58473A3F553
:10532C0084731B685969D7F804319BB2B7F876209F
:10533C0007F58470A0F58270006800F024FFCAE0C5
:10534C0007F58473A3F584731B685B78002B77D106
:10535C0007F58473A3F582731B68FB6707F58473E9
:10536C00A3F582731B68B3F850309BB21A46FB6FDF
:10537C001344FB6707F58473A3F584731B681B78D0
:10538C001A01FB6F134403F20443BB67BB6F1B880A
:10539C009BB2C3F309039AB2BB6F1A80D7F80431DE
:1053AC003E2B21D9D7F804315B09C7F8EC30D7F87C
:1053BC00043103F01F03002B04D1D7F8EC30013B70
:1053CC00C7F8EC30BB6F1B889AB2D7F8EC309BB2A5
:1053DC009B029BB213439BB26FEA43436FEA534366
:1053EC009AB2BB6F1A805CE0D7F80431002B0AD15B
:1053FC00BB6F1B889BB26FEA43436FEA53439AB26D
:10540C00BB6F1A804DE0D7F804315B08C7F8EC305D
:10541C00D7F8043103F00103002B04D0D7F8EC309B
:10542C000133C7F8EC30BB6F1B889AB2D7F8EC305D
:10543C009BB29B029BB213439AB2BB6F1A8030E0B3
:10544C0007F58473A3F584731B685B78012B28D153
:10545C0007F58473A3F582731B68C7F8843007F5CE
:10546C008473A3F582731B68B3F850309BB21A4651
:10547C00D7F884301344C7F8843007F58473A3F548
:10548C0084731B681B781A01D7F88430134403F219
:10549C000443C7F88030D7F804319AB2D7F880307B
:1054AC001A8007F58473A3F584731B681B89A7F80E
:1054BC00763007F58473A3F584731B685969D7F8A4
:1054CC0004319BB2B7F8762007F58470A0F5827092
:1054DC00006800F058FE07F58473A3F582731A6810
:1054EC0007F58473A3F584731B681B789B00134426
:1054FC001B889BB223F4E04323F040037B817B8920
:10550C0083F010037B817B8983F020037B8107F57B
:10551C008473A3F582731A6807F58473A3F58473F7
:10552C001B681B789B001A447B8943F07F4343F430
:10553C007F0343F4004343F080039BB2138000F0DD
:10554C00DEBC07F58473A3F584731B681B7B002BEF
:10555C0040F0BB8007F58473A3F584731B689A69CC
:10556C0007F58473A3F584731B681B699A4217D9DA
:10557C0007F58473A3F584731B681B69C7F80431A2
:10558C0007F58473A3F584731B689A69D7F8043103
:10559C00D21A07F58473A3F584731B689A610EE025
:1055AC0007F58473A3F584731B689B69C7F80431F2
:1055BC0007F58473A3F584731B6800229A6107F5C1
:1055CC008473A3F582731B68C7F8903007F5847356
:1055DC00A3F582731B68B3F850309BB21A46D7F808
:1055EC0090301344C7F8903007F58473A3F5847397
:1055FC001B681B781A01D7F89030134403F20C4344
:10560C00C7F88C30D7F88C301B889BB2C3F30903D6
:10561C009AB2D7F88C301A80D7F804313E2B24D9A3
:10562C00D7F804315B09C7F8E830D7F8043103F038
:10563C001F03002B04D1D7F8E830013BC7F8E83042
:10564C00D7F88C301B889AB2D7F8E8309BB29B0203
:10565C009BB213439BB26FEA43436FEA53439AB234
:10566C00D7F88C301A8000F010BCD7F80431002B1E
:10567C000CD1D7F88C301B889BB26FEA43436FEA8E
:10568C0053439AB2D7F88C301A80FEE3D7F8043122
:10569C005B08C7F8E830D7F8043103F00103002B9E
:1056AC0004D0D7F8E8300133C7F8E830D7F88C309D
:1056BC001B889AB2D7F8E8309BB29B029BB213437B
:1056CC009AB2D7F88C301A80DFE307F58473A3F510
:1056DC0084731B68DB78022B40F0188207F5847307
:1056EC00A3F584731B685B78002B40F09D8007F555
:1056FC008473A3F582731B68C7F8AC3007F5847309
:10570C00A3F582731B68B3F850309BB21A46D7F8D6
:10571C00AC301344C7F8AC3007F58473A3F584732D
:10572C001B681B781A01D7F8AC30134403F20443FE
:10573C00C7F8A830D7F8A8301B889BB2C3F309036D
:10574C009AB2D7F8A8301A8007F58473A3F584733E
:10575C001B681B693E2B2BD907F58473A3F5847347
:10576C001B681B695B09C7F8E43007F58473A3F564
:10577C0084731B681B6903F01F03002B04D1D7F83B
:10578C00E430013BC7F8E430D7F8A8301B889AB254
:10579C00D7F8E4309BB29B029BB213439BB26FEAE7
:1057AC0043436FEA53439AB2D7F8A8301A8070E09B
:1057BC0007F58473A3F584731B681B69002B0CD14C
:1057CC00D7F8A8301B889BB26FEA43436FEA534368
:1057DC009AB2D7F8A8301A805BE007F58473A3F56A
:1057EC0084731B681B695B08C7F8E43007F5847386
:1057FC00A3F584731B681B6903F00103002B04D011
:10580C00D7F8E4300133C7F8E430D7F8A8301B8858
:10581C009AB2D7F8E4309BB29B029BB213439AB274
:10582C00D7F8A8301A8034E007F58473A3F5847395
:10583C001B685B78012B2CD107F58473A3F582735D
:10584C001B68C7F8B43007F58473A3F582731B6823
:10585C00B3F850309BB21A46D7F8B4301344C7F89B
:10586C00B43007F58473A3F584731B681B781A0195
:10587C00D7F8B430134403F20443C7F8B03007F53B
:10588C008473A3F584731B681B699AB2D7F8B03084
:10589C001A8007F58473A3F582731B68C7F8A430CC
:1058AC0007F58473A3F584731B685B78002B40F0B9
:1058BC009D8007F58473A3F582731B68C7F89C3031
:1058CC0007F58473A3F582731B68B3F850309BB251
:1058DC001A46D7F89C301344C7F89C3007F58473EC
:1058EC00A3F584731B681B781A01D7F89C301344FA
:1058FC0003F20C43C7F89830D7F898301B889BB24A
:10590C00C3F309039AB2D7F898301A8007F5847359
:10591C00A3F584731B681B693E2B2BD907F5847385
:10592C00A3F584731B681B695B09C7F8E03007F5A6
:10593C008473A3F584731B681B6903F01F03002B8E
:10594C0004D1D7F8E030013BC7F8E030D7F89830F5
:10595C001B889AB2D7F8E0309BB29B029BB21343E0
:10596C009BB26FEA43436FEA53439AB2D7F898302D
:10597C001A8069E007F58473A3F584731B681B69AF
:10598C00002B0CD1D7F898301B889BB26FEA43439D
:10599C006FEA53439AB2D7F898301A8054E007F55F
:1059AC008473A3F584731B681B695B08C7F8E0302C
:1059BC0007F58473A3F584731B681B6903F001035B
:1059CC00002B04D0D7F8E0300133C7F8E030D7F81B
:1059DC0098301B889AB2D7F8E0309BB29B029BB2EE
:1059EC0013439AB2D7F898301A802DE007F58473D8
:1059FC00A3F584731B685B78012B25D107F58473A1
:105A0C00A3F582731B68B3F850309BB21A46D7F8D3
:105A1C00A4301344C7F8A43007F58473A3F584733A
:105A2C001B681B781A01D7F8A430134403F20C43FB
:105A3C00C7F8A03007F58473A3F584731B681B6942
:105A4C009AB2D7F8A0301A8007F58473A3F5847343
:105A5C001B68DB69002B00F0188207F58473A3F533
:105A6C0082731A6807F58473A3F584731B681B781B
:105A7C009B0013441B88A7F89630B7F8963003F4B4
:105A8C008043002B05D0B7F8963003F04003002B71
:105A9C000DD1B7F8963003F48043002B40F0F5811C
:105AAC00B7F8963003F04003002B40F0EE8107F579
:105ABC008473A3F582731A6807F58473A3F5847352
:105ACC001B681B789B0013441B889BB223F4E04398
